{
  "_format": "hh-sol-artifact-1",
  "contractName": "FundChain",
  "sourceName": "contracts/FundChain.sol",
  "abi": [
    {
      "inputs": [],
      "name": "AlreadyClaimed",
      "type": "error"
    },
    {
      "inputs": [],
      "name": "CampaignEnded",
      "type": "error"
    },
    {
      "inputs": [],
      "name": "CampaignNotEnded",
      "type": "error"
    },
    {
      "inputs": [],
      "name": "CampaignNotFound",
      "type": "error"
    },
    {
      "inputs": [],
      "name": "DeadlineMustBeInFuture",
      "type": "error"
    },
    {
      "inputs": [],
      "name": "GoalAlreadyReached",
      "type": "error"
    },
    {
      "inputs": [],
      "name": "GoalMustBePositive",
      "type": "error"
    },
    {
      "inputs": [],
      "name": "GoalNotReached",
      "type": "error"
    },
    {
      "inputs": [],
      "name": "NotOwner",
      "type": "error"
    },
    {
      "inputs": [],
      "name": "NothingToRefund",
      "type": "error"
    },
    {
      "inputs": [],
      "name": "TitleTooShort",
      "type": "error"
    },
    {
      "inputs": [],
      "name": "ZeroContribution",
      "type": "error"
    },
    {
      "anonymous": false,
      "inputs": [
        {
          "indexed": true,
          "internalType": "uint256",
          "name": "id",
          "type": "uint256"
        },
        {
          "indexed": true,
          "internalType": "address",
          "name": "owner",
          "type": "address"
        },
        {
          "indexed": false,
          "internalType": "string",
          "name": "title",
          "type": "string"
        },
        {
          "indexed": false,
          "internalType": "uint256",
          "name": "goal",
          "type": "uint256"
        },
        {
          "indexed": false,
          "internalType": "uint256",
          "name": "deadline",
          "type": "uint256"
        }
      ],
      "name": "CampaignCreated",
      "type": "event"
    },
    {
      "anonymous": false,
      "inputs": [
        {
          "indexed": true,
          "internalType": "uint256",
          "name": "campaignId",
          "type": "uint256"
        },
        {
          "indexed": true,
          "internalType": "address",
          "name": "contributor",
          "type": "address"
        },
        {
          "indexed": false,
          "internalType": "uint256",
          "name": "amount",
          "type": "uint256"
        },
        {
          "indexed": false,
          "internalType": "uint256",
          "name": "totalRaised",
          "type": "uint256"
        }
      ],
      "name": "Funded",
      "type": "event"
    },
    {
      "anonymous": false,
      "inputs": [
        {
          "indexed": true,
          "internalType": "uint256",
          "name": "campaignId",
          "type": "uint256"
        },
        {
          "indexed": true,
          "internalType": "address",
          "name": "owner",
          "type": "address"
        },
        {
          "indexed": false,
          "internalType": "uint256",
          "name": "amount",
          "type": "uint256"
        }
      ],
      "name": "FundsClaimed",
      "type": "event"
    },
    {
      "anonymous": false,
      "inputs": [
        {
          "indexed": true,
          "internalType": "uint256",
          "name": "campaignId",
          "type": "uint256"
        },
        {
          "indexed": true,
          "internalType": "address",
          "name": "contributor",
          "type": "address"
        },
        {
          "indexed": false,
          "internalType": "uint256",
          "name": "amount",
          "type": "uint256"
        }
      ],
      "name": "Refunded",
      "type": "event"
    },
    {
      "inputs": [],
      "name": "campaignCount",
      "outputs": [
        {
          "internalType": "uint256",
          "name": "",
          "type": "uint256"
        }
      ],
      "stateMutability": "view",
      "type": "function"
    },
    {
      "inputs": [
        {
          "internalType": "uint256",
          "name": "",
          "type": "uint256"
        }
      ],
      "name": "campaigns",
      "outputs": [
        {
          "internalType": "uint256",
          "name": "id",
          "type": "uint256"
        },
        {
          "internalType": "address payable",
          "name": "owner",
          "type": "address"
        },
        {
          "internalType": "string",
          "name": "title",
          "type": "string"
        },
        {
          "internalType": "string",
          "name": "description",
          "type": "string"
        },
        {
          "internalType": "uint256",
          "name": "goal",
          "type": "uint256"
        },
        {
          "internalType": "uint256",
          "name": "deadline",
          "type": "uint256"
        },
        {
          "internalType": "uint256",
          "name": "raised",
          "type": "uint256"
        },
        {
          "internalType": "bool",
          "name": "claimed",
          "type": "bool"
        },
        {
          "internalType": "bool",
          "name": "exists",
          "type": "bool"
        }
      ],
      "stateMutability": "view",
      "type": "function"
    },
    {
      "inputs": [
        {
          "internalType": "uint256",
          "name": "campaignId",
          "type": "uint256"
        }
      ],
      "name": "claimFunds",
      "outputs": [],
      "stateMutability": "nonpayable",
      "type": "function"
    },
    {
      "inputs": [
        {
          "internalType": "uint256",
          "name": "",
          "type": "uint256"
        },
        {
          "internalType": "address",
          "name": "",
          "type": "address"
        }
      ],
      "name": "contributions",
      "outputs": [
        {
          "internalType": "uint256",
          "name": "",
          "type": "uint256"
        }
      ],
      "stateMutability": "view",
      "type": "function"
    },
    {
      "inputs": [
        {
          "internalType": "string",
          "name": "title",
          "type": "string"
        },
        {
          "internalType": "string",
          "name": "description",
          "type": "string"
        },
        {
          "internalType": "uint256",
          "name": "goal",
          "type": "uint256"
        },
        {
          "internalType": "uint256",
          "name": "durationDays",
          "type": "uint256"
        }
      ],
      "name": "createCampaign",
      "outputs": [
        {
          "internalType": "uint256",
          "name": "",
          "type": "uint256"
        }
      ],
      "stateMutability": "nonpayable",
      "type": "function"
    },
    {
      "inputs": [
        {
          "internalType": "uint256",
          "name": "campaignId",
          "type": "uint256"
        }
      ],
      "name": "fund",
      "outputs": [],
      "stateMutability": "payable",
      "type": "function"
    },
    {
      "inputs": [
        {
          "internalType": "uint256",
          "name": "campaignId",
          "type": "uint256"
        }
      ],
      "name": "getCampaign",
      "outputs": [
        {
          "components": [
            {
              "internalType": "uint256",
              "name": "id",
              "type": "uint256"
            },
            {
              "internalType": "address payable",
              "name": "owner",
              "type": "address"
            },
            {
              "internalType": "string",
              "name": "title",
              "type": "string"
            },
            {
              "internalType": "string",
              "name": "description",
              "type": "string"
            },
            {
              "internalType": "uint256",
              "name": "goal",
              "type": "uint256"
            },
            {
              "internalType": "uint256",
              "name": "deadline",
              "type": "uint256"
            },
            {
              "internalType": "uint256",
              "name": "raised",
              "type": "uint256"
            },
            {
              "internalType": "bool",
              "name": "claimed",
              "type": "bool"
            },
            {
              "internalType": "bool",
              "name": "exists",
              "type": "bool"
            }
          ],
          "internalType": "struct FundChain.Campaign",
          "name": "",
          "type": "tuple"
        }
      ],
      "stateMutability": "view",
      "type": "function"
    },
    {
      "inputs": [
        {
          "internalType": "uint256",
          "name": "campaignId",
          "type": "uint256"
        },
        {
          "internalType": "address",
          "name": "contributor",
          "type": "address"
        }
      ],
      "name": "getContribution",
      "outputs": [
        {
          "internalType": "uint256",
          "name": "",
          "type": "uint256"
        }
      ],
      "stateMutability": "view",
      "type": "function"
    },
    {
      "inputs": [
        {
          "internalType": "uint256",
          "name": "campaignId",
          "type": "uint256"
        }
      ],
      "name": "getProgress",
      "outputs": [
        {
          "internalType": "uint256",
          "name": "percent",
          "type": "uint256"
        }
      ],
      "stateMutability": "view",
      "type": "function"
    },
    {
      "inputs": [
        {
          "internalType": "uint256",
          "name": "campaignId",
          "type": "uint256"
        }
      ],
      "name": "isActive",
      "outputs": [
        {
          "internalType": "bool",
          "name": "",
          "type": "bool"
        }
      ],
      "stateMutability": "view",
      "type": "function"
    },
    {
      "inputs": [
        {
          "internalType": "uint256",
          "name": "campaignId",
          "type": "uint256"
        }
      ],
      "name": "refund",
      "outputs": [],
      "stateMutability": "nonpayable",
      "type": "function"
    }
  ],
  "bytecode": "0x608060405234801561001057600080fd5b506110ea806100206000396000f3fe60806040526004361061009c5760003560e01c80637274e30d116100645780637274e30d1461019457806382afd23b146101aa578063a318f269146101da578063ca1d209d146101fa578063e081dbf91461020d578063e11efa061461022d57600080fd5b8063141961bc146100a15780631b55e338146100df578063278ecde1146101015780633d891f59146101215780635598f8cc14610167575b600080fd5b3480156100ad57600080fd5b506100c16100bc366004610c1e565b61024d565b6040516100d699989796959493929190610c7d565b60405180910390f35b3480156100eb57600080fd5b506100ff6100fa366004610c1e565b6103b6565b005b34801561010d57600080fd5b506100ff61011c366004610c1e565b6104f5565b34801561012d57600080fd5b5061015961013c366004610cee565b600260209081526000928352604080842090915290825290205481565b6040519081526020016100d6565b34801561017357600080fd5b50610187610182366004610c1e565b610605565b6040516100d69190610d2a565b3480156101a057600080fd5b5061015960005481565b3480156101b657600080fd5b506101ca6101c5366004610c1e565b6107f9565b60405190151581526020016100d6565b3480156101e657600080fd5b506101596101f5366004610e1c565b610828565b6100ff610208366004610c1e565b610a89565b34801561021957600080fd5b50610159610228366004610cee565b610b69565b34801561023957600080fd5b50610159610248366004610c1e565b610b93565b60016020819052600091825260409091208054918101546002820180546001600160a01b03909216929161028090610e9a565b80601f01602080910402602001604051908101604052809291908181526020018280546102ac90610e9a565b80156102f95780601f106102ce576101008083540402835291602001916102f9565b820191906000526020600020905b8154815290600101906020018083116102dc57829003601f168201915b50505050509080600301805461030e90610e9a565b80601f016020809104026020016040519081016040528092919081815260200182805461033a90610e9a565b80156103875780601f1061035c57610100808354040283529160200191610387565b820191906000526020600020905b81548152906001019060200180831161036a57829003601f168201915b505050506004830154600584015460068501546007909501549394919390925060ff8082169161010090041689565b60006103c182610bd5565b60018101549091506001600160a01b031633146103f1576040516330cd747160e01b815260040160405180910390fd5b80600501544210156104165760405163cc76115360e01b815260040160405180910390fd5b80600401548160060154101561043f576040516378c754c960e01b815260040160405180910390fd5b600781015460ff161561046557604051630c8d9eab60e31b815260040160405180910390fd5b60078101805460ff191660019081179091556006820154908201546040516001600160a01b039091169082156108fc029083906000818181858888f193505050501580156104b7573d6000803e3d6000fd5b50604051818152339084907fa4eb50103b0591feb0bc913f479d92af5eb7ea33e8c397b49bab52ce6af26cb5906020015b60405180910390a3505050565b600061050082610bd5565b905080600501544210156105275760405163cc76115360e01b815260040160405180910390fd5b806004015481600601541061054f5760405163465c128f60e11b815260040160405180910390fd5b60008281526002602090815260408083203384529091528120549081900361058a5760405163f76aef6560e01b815260040160405180910390fd5b600083815260026020908152604080832033808552925280832083905551909183156108fc02918491818181858888f193505050501580156105d0573d6000803e3d6000fd5b50604051818152339084907f7ca5472b7ea78c2c0141c5a12ee6d170cf4ce8ed06be3d22c8252ddfc7a6a2c4906020016104e8565b6106616040518061012001604052806000815260200160006001600160a01b0316815260200160608152602001606081526020016000815260200160008152602001600081526020016000151581526020016000151581525090565b61066a82610bd5565b60408051610120810182528254815260018301546001600160a01b031660208201526002830180549193928401916106a190610e9a565b80601f01602080910402602001604051908101604052809291908181526020018280546106cd90610e9a565b801561071a5780601f106106ef5761010080835404028352916020019161071a565b820191906000526020600020905b8154815290600101906020018083116106fd57829003601f168201915b5050505050815260200160038201805461073390610e9a565b80601f016020809104026020016040519081016040528092919081815260200182805461075f90610e9a565b80156107ac5780601f10610781576101008083540402835291602001916107ac565b820191906000526020600020905b81548152906001019060200180831161078f57829003601f168201915b505050918352505060048201546020820152600582015460408201526006820154606082015260079091015460ff8082161515608084015261010090910416151560a09091015292915050565b60008061080583610bd5565b9050806005015442108015610821575080600401548160060154105b9392505050565b6000600586101561084c576040516324ace35560e01b815260040160405180910390fd5b8260000361086d57604051633b84571960e01b815260040160405180910390fd5b8160000361088e57604051630642ce7760e01b815260040160405180910390fd5b6000806000815461089e90610eea565b9190508190559050604051806101200160405280828152602001336001600160a01b0316815260200189898080601f016020809104026020016040519081016040528093929190818152602001838380828437600092019190915250505090825250604080516020601f8a0181900481028201810190925288815291810191908990899081908401838280828437600092019190915250505090825250602081018690526040016109528562015180610f03565b61095c9042610f1a565b81526000602080830182905260408084018390526001606090940184905285835283825291829020845181559084015192810180546001600160a01b0319166001600160a01b039094169390931790925582015160028201906109bf9082610f92565b50606082015160038201906109d49082610f92565b506080820151600482015560a082015160058083019190915560c0830151600683015560e0830151600790920180546101009485015161ffff1990911693151561ff001916939093179215159093029190911790915560008281526001602052604090819020909101549051339183917fdc26653af5b99b2da33e2ad69ee6600d9aeccc82b034501db4338309615ca23891610a76918d918d918b9190611052565b60405180910390a3979650505050505050565b6000610a9482610bd5565b905080600501544210610aba5760405163154eb81560e21b815260040160405180910390fd5b34600003610adb57604051631570544960e31b815260040160405180910390fd5b34816006016000828254610aef9190610f1a565b9091555050600082815260026020908152604080832033845290915281208054349290610b1d908490610f1a565b90915550506006810154604080513481526020810192909252339184917f9a98994924b3f454e430a7e3c884aa145467ff2913f30a4b4c428a25797c7975910160405180910390a35050565b60008281526002602090815260408083206001600160a01b03851684529091529020545b92915050565b600080610b9f83610bd5565b90508060040154600003610bb65750600092915050565b60048101546006820154610bcb906064610f03565b6108219190611092565b600081815260016020526040812060070154610100900460ff16610c0c576040516337f9b70b60e11b815260040160405180910390fd5b50600090815260016020526040902090565b600060208284031215610c3057600080fd5b5035919050565b6000815180845260005b81811015610c5d57602081850181015186830182015201610c41565b506000602082860101526020601f19601f83011685010191505092915050565b8981526001600160a01b038916602082015261012060408201819052600090610ca88382018b610c37565b90508281036060840152610cbc818a610c37565b6080840198909852505060a081019490945260c0840192909252151560e0830152151561010090910152949350505050565b60008060408385031215610d0157600080fd5b8235915060208301356001600160a01b0381168114610d1f57600080fd5b809150509250929050565b602081528151602082015260006020830151610d5160408401826001600160a01b03169052565b506040830151610120806060850152610d6e610140850183610c37565b91506060850151601f19858403016080860152610d8b8382610c37565b925050608085015160a085015260a085015160c085015260c085015160e085015260e0850151610100610dc18187018315159052565b90950151151593019290925250919050565b60008083601f840112610de557600080fd5b50813567ffffffffffffffff811115610dfd57600080fd5b602083019150836020828501011115610e1557600080fd5b9250929050565b60008060008060008060808789031215610e3557600080fd5b863567ffffffffffffffff80821115610e4d57600080fd5b610e598a838b01610dd3565b90985096506020890135915080821115610e7257600080fd5b50610e7f89828a01610dd3565b979a9699509760408101359660609091013595509350505050565b600181811c90821680610eae57607f821691505b602082108103610ece57634e487b7160e01b600052602260045260246000fd5b50919050565b634e487b7160e01b600052601160045260246000fd5b600060018201610efc57610efc610ed4565b5060010190565b8082028115828204841417610b8d57610b8d610ed4565b80820180821115610b8d57610b8d610ed4565b634e487b7160e01b600052604160045260246000fd5b601f821115610f8d57600081815260208120601f850160051c81016020861015610f6a5750805b601f850160051c820191505b81811015610f8957828155600101610f76565b5050505b505050565b815167ffffffffffffffff811115610fac57610fac610f2d565b610fc081610fba8454610e9a565b84610f43565b602080601f831160018114610ff55760008415610fdd5750858301515b600019600386901b1c1916600185901b178555610f89565b600085815260208120601f198616915b8281101561102457888601518255948401946001909101908401611005565b50858210156110425787850151600019600388901b60f8161c191681555b5050505050600190811b01905550565b606081528360608201528385608083013760006080858301015260006080601f19601f870116830101905083602083015282604083015295945050505050565b6000826110af57634e487b7160e01b600052601260045260246000fd5b50049056fea2646970667358221220e9484120069e57196be4db61c9071217ef43336a6e0a727384d587aa3937987564736f6c63430008140033",
  "linkReferences": {},
  "deployedLinkReferences": {}
}